{
  "contractName": "MaticStone",
  "abi": [
    {
      "inputs": [],
      "stateMutability": "nonpayable",
      "type": "constructor"
    },
    {
      "anonymous": false,
      "inputs": [
        {
          "indexed": true,
          "internalType": "address",
          "name": "owner",
          "type": "address"
        },
        {
          "indexed": true,
          "internalType": "address",
          "name": "approved",
          "type": "address"
        },
        {
          "indexed": true,
          "internalType": "uint256",
          "name": "tokenId",
          "type": "uint256"
        }
      ],
      "name": "Approval",
      "type": "event"
    },
    {
      "anonymous": false,
      "inputs": [
        {
          "indexed": true,
          "internalType": "address",
          "name": "owner",
          "type": "address"
        },
        {
          "indexed": true,
          "internalType": "address",
          "name": "operator",
          "type": "address"
        },
        {
          "indexed": false,
          "internalType": "bool",
          "name": "approved",
          "type": "bool"
        }
      ],
      "name": "ApprovalForAll",
      "type": "event"
    },
    {
      "anonymous": false,
      "inputs": [
        {
          "indexed": true,
          "internalType": "address",
          "name": "from",
          "type": "address"
        },
        {
          "indexed": true,
          "internalType": "address",
          "name": "to",
          "type": "address"
        },
        {
          "indexed": true,
          "internalType": "uint256",
          "name": "tokenId",
          "type": "uint256"
        }
      ],
      "name": "Transfer",
      "type": "event"
    },
    {
      "inputs": [
        {
          "internalType": "address",
          "name": "to",
          "type": "address"
        },
        {
          "internalType": "uint256",
          "name": "tokenId",
          "type": "uint256"
        }
      ],
      "name": "approve",
      "outputs": [],
      "stateMutability": "nonpayable",
      "type": "function"
    },
    {
      "inputs": [
        {
          "internalType": "address",
          "name": "owner",
          "type": "address"
        }
      ],
      "name": "balanceOf",
      "outputs": [
        {
          "internalType": "uint256",
          "name": "",
          "type": "uint256"
        }
      ],
      "stateMutability": "view",
      "type": "function"
    },
    {
      "inputs": [
        {
          "internalType": "uint256",
          "name": "tokenId",
          "type": "uint256"
        }
      ],
      "name": "burn",
      "outputs": [],
      "stateMutability": "nonpayable",
      "type": "function"
    },
    {
      "inputs": [
        {
          "internalType": "uint256",
          "name": "tokenId",
          "type": "uint256"
        }
      ],
      "name": "getApproved",
      "outputs": [
        {
          "internalType": "address",
          "name": "",
          "type": "address"
        }
      ],
      "stateMutability": "view",
      "type": "function"
    },
    {
      "inputs": [
        {
          "internalType": "address",
          "name": "owner",
          "type": "address"
        },
        {
          "internalType": "address",
          "name": "operator",
          "type": "address"
        }
      ],
      "name": "isApprovedForAll",
      "outputs": [
        {
          "internalType": "bool",
          "name": "",
          "type": "bool"
        }
      ],
      "stateMutability": "view",
      "type": "function"
    },
    {
      "inputs": [],
      "name": "name",
      "outputs": [
        {
          "internalType": "string",
          "name": "",
          "type": "string"
        }
      ],
      "stateMutability": "view",
      "type": "function"
    },
    {
      "inputs": [
        {
          "internalType": "uint256",
          "name": "tokenId",
          "type": "uint256"
        }
      ],
      "name": "ownerOf",
      "outputs": [
        {
          "internalType": "address",
          "name": "",
          "type": "address"
        }
      ],
      "stateMutability": "view",
      "type": "function"
    },
    {
      "inputs": [
        {
          "internalType": "address",
          "name": "from",
          "type": "address"
        },
        {
          "internalType": "address",
          "name": "to",
          "type": "address"
        },
        {
          "internalType": "uint256",
          "name": "tokenId",
          "type": "uint256"
        }
      ],
      "name": "safeTransferFrom",
      "outputs": [],
      "stateMutability": "nonpayable",
      "type": "function"
    },
    {
      "inputs": [
        {
          "internalType": "address",
          "name": "from",
          "type": "address"
        },
        {
          "internalType": "address",
          "name": "to",
          "type": "address"
        },
        {
          "internalType": "uint256",
          "name": "tokenId",
          "type": "uint256"
        },
        {
          "internalType": "bytes",
          "name": "data",
          "type": "bytes"
        }
      ],
      "name": "safeTransferFrom",
      "outputs": [],
      "stateMutability": "nonpayable",
      "type": "function"
    },
    {
      "inputs": [
        {
          "internalType": "address",
          "name": "operator",
          "type": "address"
        },
        {
          "internalType": "bool",
          "name": "approved",
          "type": "bool"
        }
      ],
      "name": "setApprovalForAll",
      "outputs": [],
      "stateMutability": "nonpayable",
      "type": "function"
    },
    {
      "inputs": [],
      "name": "symbol",
      "outputs": [
        {
          "internalType": "string",
          "name": "",
          "type": "string"
        }
      ],
      "stateMutability": "view",
      "type": "function"
    },
    {
      "inputs": [
        {
          "internalType": "uint256",
          "name": "index",
          "type": "uint256"
        }
      ],
      "name": "tokenByIndex",
      "outputs": [
        {
          "internalType": "uint256",
          "name": "",
          "type": "uint256"
        }
      ],
      "stateMutability": "view",
      "type": "function"
    },
    {
      "inputs": [
        {
          "internalType": "address",
          "name": "owner",
          "type": "address"
        },
        {
          "internalType": "uint256",
          "name": "index",
          "type": "uint256"
        }
      ],
      "name": "tokenOfOwnerByIndex",
      "outputs": [
        {
          "internalType": "uint256",
          "name": "",
          "type": "uint256"
        }
      ],
      "stateMutability": "view",
      "type": "function"
    },
    {
      "inputs": [],
      "name": "totalSupply",
      "outputs": [
        {
          "internalType": "uint256",
          "name": "",
          "type": "uint256"
        }
      ],
      "stateMutability": "view",
      "type": "function"
    },
    {
      "inputs": [
        {
          "internalType": "address",
          "name": "from",
          "type": "address"
        },
        {
          "internalType": "address",
          "name": "to",
          "type": "address"
        },
        {
          "internalType": "uint256",
          "name": "tokenId",
          "type": "uint256"
        }
      ],
      "name": "transferFrom",
      "outputs": [],
      "stateMutability": "nonpayable",
      "type": "function"
    },
    {
      "inputs": [
        {
          "internalType": "address",
          "name": "to",
          "type": "address"
        },
        {
          "internalType": "string",
          "name": "uri",
          "type": "string"
        }
      ],
      "name": "safeMint",
      "outputs": [],
      "stateMutability": "nonpayable",
      "type": "function"
    },
    {
      "inputs": [
        {
          "internalType": "address",
          "name": "to",
          "type": "address"
        },
        {
          "internalType": "string[]",
          "name": "uris",
          "type": "string[]"
        }
      ],
      "name": "mulitMint",
      "outputs": [],
      "stateMutability": "nonpayable",
      "type": "function"
    },
    {
      "inputs": [
        {
          "internalType": "uint256",
          "name": "tokenId",
          "type": "uint256"
        }
      ],
      "name": "tokenURI",
      "outputs": [
        {
          "internalType": "string",
          "name": "",
          "type": "string"
        }
      ],
      "stateMutability": "view",
      "type": "function"
    },
    {
      "inputs": [
        {
          "internalType": "bytes4",
          "name": "interfaceId",
          "type": "bytes4"
        }
      ],
      "name": "supportsInterface",
      "outputs": [
        {
          "internalType": "bool",
          "name": "",
          "type": "bool"
        }
      ],
      "stateMutability": "view",
      "type": "function"
    }
  ],
  "bytecode": "0x60806040523480156200001157600080fd5b506040518060400160405280600a81526020017f4d6174696353746f6e65000000000000000000000000000000000000000000008152506040518060400160405280600381526020017f4d54530000000000000000000000000000000000000000000000000000000000815250816000908051906020019062000096929190620000b8565b508060019080519060200190620000af929190620000b8565b505050620001cd565b828054620000c69062000197565b90600052602060002090601f016020900481019282620000ea576000855562000136565b82601f106200010557805160ff191683800117855562000136565b8280016001018555821562000136579182015b828111156200013557825182559160200191906001019062000118565b5b50905062000145919062000149565b5090565b5b80821115620001645760008160009055506001016200014a565b5090565b7f4e487b7100000000000000000000000000000000000000000000000000000000600052602260045260246000fd5b60006002820490506001821680620001b057607f821691505b60208210811415620001c757620001c662000168565b5b50919050565b61382c80620001dd6000396000f3fe608060405234801561001057600080fd5b50600436106101215760003560e01c80634f6ccce7116100ad578063a22cb46511610071578063a22cb4651461032c578063b88d4fde14610348578063c87b56dd14610364578063d204c45e14610394578063e985e9c5146103b057610121565b80634f6ccce7146102625780636352211e1461029257806370a08231146102c257806395d89b41146102f257806396e5c9c61461031057610121565b806318160ddd116100f457806318160ddd146101c057806323b872dd146101de5780632f745c59146101fa57806342842e0e1461022a57806342966c681461024657610121565b806301ffc9a71461012657806306fdde0314610156578063081812fc14610174578063095ea7b3146101a4575b600080fd5b610140600480360381019061013b9190612537565b6103e0565b60405161014d919061257f565b60405180910390f35b61015e6103f2565b60405161016b9190612633565b60405180910390f35b61018e6004803603810190610189919061268b565b610484565b60405161019b91906126f9565b60405180910390f35b6101be60048036038101906101b99190612740565b6104ca565b005b6101c86105e2565b6040516101d5919061278f565b60405180910390f35b6101f860048036038101906101f391906127aa565b6105ef565b005b610214600480360381019061020f9190612740565b61064f565b604051610221919061278f565b60405180910390f35b610244600480360381019061023f91906127aa565b6106f4565b005b610260600480360381019061025b919061268b565b610714565b005b61027c6004803603810190610277919061268b565b610770565b604051610289919061278f565b60405180910390f35b6102ac60048036038101906102a7919061268b565b6107e1565b6040516102b991906126f9565b60405180910390f35b6102dc60048036038101906102d791906127fd565b610868565b6040516102e9919061278f565b60405180910390f35b6102fa610920565b6040516103079190612633565b60405180910390f35b61032a60048036038101906103259190612a45565b6109b2565b005b61034660048036038101906103419190612acd565b6109fa565b005b610362600480360381019061035d9190612bae565b610a10565b005b61037e6004803603810190610379919061268b565b610a72565b60405161038b9190612633565b60405180910390f35b6103ae60048036038101906103a99190612c31565b610a84565b005b6103ca60048036038101906103c59190612c8d565b610ab5565b6040516103d7919061257f565b60405180910390f35b60006103eb82610b49565b9050919050565b60606000805461040190612cfc565b80601f016020809104026020016040519081016040528092919081815260200182805461042d90612cfc565b801561047a5780601f1061044f5761010080835404028352916020019161047a565b820191906000526020600020905b81548152906001019060200180831161045d57829003601f168201915b5050505050905090565b600061048f82610bc3565b6004600083815260200190815260200160002060009054906101000a900473ffffffffffffffffffffffffffffffffffffffff169050919050565b60006104d5826107e1565b90508073ffffffffffffffffffffffffffffffffffffffff168373ffffffffffffffffffffffffffffffffffffffff161415610546576040517f08c379a000000000000000000000000000000000000000000000000000000000815260040161053d90612da0565b60405180910390fd5b8073ffffffffffffffffffffffffffffffffffffffff16610565610c0e565b73ffffffffffffffffffffffffffffffffffffffff16148061059457506105938161058e610c0e565b610ab5565b5b6105d3576040517f08c379a00000000000000000000000000000000000000000000000000000000081526004016105ca90612e32565b60405180910390fd5b6105dd8383610c16565b505050565b6000600880549050905090565b6106006105fa610c0e565b82610ccf565b61063f576040517f08c379a000000000000000000000000000000000000000000000000000000000815260040161063690612ec4565b60405180910390fd5b61064a838383610d64565b505050565b600061065a83610868565b821061069b576040517f08c379a000000000000000000000000000000000000000000000000000000000815260040161069290612f56565b60405180910390fd5b600660008473ffffffffffffffffffffffffffffffffffffffff1673ffffffffffffffffffffffffffffffffffffffff168152602001908152602001600020600083815260200190815260200160002054905092915050565b61070f83838360405180602001604052806000815250610a10565b505050565b61072561071f610c0e565b82610ccf565b610764576040517f08c379a000000000000000000000000000000000000000000000000000000000815260040161075b90612ec4565b60405180910390fd5b61076d8161105e565b50565b600061077a6105e2565b82106107bb576040517f08c379a00000000000000000000000000000000000000000000000000000000081526004016107b290612fe8565b60405180910390fd5b600882815481106107cf576107ce613008565b5b90600052602060002001549050919050565b6000806107ed8361106a565b9050600073ffffffffffffffffffffffffffffffffffffffff168173ffffffffffffffffffffffffffffffffffffffff16141561085f576040517f08c379a000000000000000000000000000000000000000000000000000000000815260040161085690613083565b60405180910390fd5b80915050919050565b60008073ffffffffffffffffffffffffffffffffffffffff168273ffffffffffffffffffffffffffffffffffffffff1614156108d9576040517f08c379a00000000000000000000000000000000000000000000000000000000081526004016108d090613115565b60405180910390fd5b600360008373ffffffffffffffffffffffffffffffffffffffff1673ffffffffffffffffffffffffffffffffffffffff168152602001908152602001600020549050919050565b60606001805461092f90612cfc565b80601f016020809104026020016040519081016040528092919081815260200182805461095b90612cfc565b80156109a85780601f1061097d576101008083540402835291602001916109a8565b820191906000526020600020905b81548152906001019060200180831161098b57829003601f168201915b5050505050905090565b60005b81518110156109f5576109e2838383815181106109d5576109d4613008565b5b6020026020010151610a84565b80806109ed90613164565b9150506109b5565b505050565b610a0c610a05610c0e565b83836110a7565b5050565b610a21610a1b610c0e565b83610ccf565b610a60576040517f08c379a0000000000000000000000000000000000000000000000000000000008152600401610a5790612ec4565b60405180910390fd5b610a6c84848484611214565b50505050565b6060610a7d82611270565b9050919050565b6000610a90600b611383565b9050610a9c600b611391565b610aa683826113a7565b610ab081836113c5565b505050565b6000600560008473ffffffffffffffffffffffffffffffffffffffff1673ffffffffffffffffffffffffffffffffffffffff16815260200190815260200160002060008373ffffffffffffffffffffffffffffffffffffffff1673ffffffffffffffffffffffffffffffffffffffff16815260200190815260200160002060009054906101000a900460ff16905092915050565b60007f780e9d63000000000000000000000000000000000000000000000000000000007bffffffffffffffffffffffffffffffffffffffffffffffffffffffff1916827bffffffffffffffffffffffffffffffffffffffffffffffffffffffff19161480610bbc5750610bbb82611439565b5b9050919050565b610bcc8161151b565b610c0b576040517f08c379a0000000000000000000000000000000000000000000000000000000008152600401610c0290613083565b60405180910390fd5b50565b600033905090565b816004600083815260200190815260200160002060006101000a81548173ffffffffffffffffffffffffffffffffffffffff021916908373ffffffffffffffffffffffffffffffffffffffff160217905550808273ffffffffffffffffffffffffffffffffffffffff16610c89836107e1565b73ffffffffffffffffffffffffffffffffffffffff167f8c5be1e5ebec7d5bd14f71427d1e84f3dd0314c0f7b2291e5b200ac8c7c3b92560405160405180910390a45050565b600080610cdb836107e1565b90508073ffffffffffffffffffffffffffffffffffffffff168473ffffffffffffffffffffffffffffffffffffffff161480610d1d5750610d1c8185610ab5565b5b80610d5b57508373ffffffffffffffffffffffffffffffffffffffff16610d4384610484565b73ffffffffffffffffffffffffffffffffffffffff16145b91505092915050565b8273ffffffffffffffffffffffffffffffffffffffff16610d84826107e1565b73ffffffffffffffffffffffffffffffffffffffff1614610dda576040517f08c379a0000000000000000000000000000000000000000000000000000000008152600401610dd19061321f565b60405180910390fd5b600073ffffffffffffffffffffffffffffffffffffffff168273ffffffffffffffffffffffffffffffffffffffff161415610e4a576040517f08c379a0000000000000000000000000000000000000000000000000000000008152600401610e41906132b1565b60405180910390fd5b610e57838383600161155c565b8273ffffffffffffffffffffffffffffffffffffffff16610e77826107e1565b73ffffffffffffffffffffffffffffffffffffffff1614610ecd576040517f08c379a0000000000000000000000000000000000000000000000000000000008152600401610ec49061321f565b60405180910390fd5b6004600082815260200190815260200160002060006101000a81549073ffffffffffffffffffffffffffffffffffffffff02191690556001600360008573ffffffffffffffffffffffffffffffffffffffff1673ffffffffffffffffffffffffffffffffffffffff168152602001908152602001600020600082825403925050819055506001600360008473ffffffffffffffffffffffffffffffffffffffff1673ffffffffffffffffffffffffffffffffffffffff16815260200190815260200160002060008282540192505081905550816002600083815260200190815260200160002060006101000a81548173ffffffffffffffffffffffffffffffffffffffff021916908373ffffffffffffffffffffffffffffffffffffffff160217905550808273ffffffffffffffffffffffffffffffffffffffff168473ffffffffffffffffffffffffffffffffffffffff167fddf252ad1be2c89b69c2b068fc378daa952ba7f163c4a11628f55a4df523b3ef60405160405180910390a4611059838383600161156e565b505050565b61106781611574565b50565b60006002600083815260200190815260200160002060009054906101000a900473ffffffffffffffffffffffffffffffffffffffff169050919050565b8173ffffffffffffffffffffffffffffffffffffffff168373ffffffffffffffffffffffffffffffffffffffff161415611116576040517f08c379a000000000000000000000000000000000000000000000000000000000815260040161110d9061331d565b60405180910390fd5b80600560008573ffffffffffffffffffffffffffffffffffffffff1673ffffffffffffffffffffffffffffffffffffffff16815260200190815260200160002060008473ffffffffffffffffffffffffffffffffffffffff1673ffffffffffffffffffffffffffffffffffffffff16815260200190815260200160002060006101000a81548160ff0219169083151502179055508173ffffffffffffffffffffffffffffffffffffffff168373ffffffffffffffffffffffffffffffffffffffff167f17307eab39ab6107e8899845ad3d59bd9653f200f220920489ca2b5937696c3183604051611207919061257f565b60405180910390a3505050565b61121f848484610d64565b61122b848484846115c7565b61126a576040517f08c379a0000000000000000000000000000000000000000000000000000000008152600401611261906133af565b60405180910390fd5b50505050565b606061127b82610bc3565b6000600a6000848152602001908152602001600020805461129b90612cfc565b80601f01602080910402602001604051908101604052809291908181526020018280546112c790612cfc565b80156113145780601f106112e957610100808354040283529160200191611314565b820191906000526020600020905b8154815290600101906020018083116112f757829003601f168201915b50505050509050600061132561175e565b905060008151141561133b57819250505061137e565b60008251111561137057808260405160200161135892919061340b565b6040516020818303038152906040529250505061137e565b61137984611775565b925050505b919050565b600081600001549050919050565b6001816000016000828254019250508190555050565b6113c18282604051806020016040528060008152506117dd565b5050565b6113ce8261151b565b61140d576040517f08c379a0000000000000000000000000000000000000000000000000000000008152600401611404906134a1565b60405180910390fd5b80600a600084815260200190815260200160002090805190602001906114349291906123e8565b505050565b60007f80ac58cd000000000000000000000000000000000000000000000000000000007bffffffffffffffffffffffffffffffffffffffffffffffffffffffff1916827bffffffffffffffffffffffffffffffffffffffffffffffffffffffff1916148061150457507f5b5e139f000000000000000000000000000000000000000000000000000000007bffffffffffffffffffffffffffffffffffffffffffffffffffffffff1916827bffffffffffffffffffffffffffffffffffffffffffffffffffffffff1916145b80611514575061151382611838565b5b9050919050565b60008073ffffffffffffffffffffffffffffffffffffffff1661153d8361106a565b73ffffffffffffffffffffffffffffffffffffffff1614159050919050565b611568848484846118a2565b50505050565b50505050565b61157d81611a02565b6000600a6000838152602001908152602001600020805461159d90612cfc565b9050146115c457600a600082815260200190815260200160002060006115c3919061246e565b5b50565b60006115e88473ffffffffffffffffffffffffffffffffffffffff16611b50565b15611751578373ffffffffffffffffffffffffffffffffffffffff1663150b7a02611611610c0e565b8786866040518563ffffffff1660e01b81526004016116339493929190613516565b602060405180830381600087803b15801561164d57600080fd5b505af192505050801561167e57506040513d601f19601f8201168201806040525081019061167b9190613577565b60015b611701573d80600081146116ae576040519150601f19603f3d011682016040523d82523d6000602084013e6116b3565b606091505b506000815114156116f9576040517f08c379a00000000000000000000000000000000000000000000000000000000081526004016116f0906133af565b60405180910390fd5b805181602001fd5b63150b7a0260e01b7bffffffffffffffffffffffffffffffffffffffffffffffffffffffff1916817bffffffffffffffffffffffffffffffffffffffffffffffffffffffff191614915050611756565b600190505b949350505050565b606060405180602001604052806000815250905090565b606061178082610bc3565b600061178a61175e565b905060008151116117aa57604051806020016040528060008152506117d5565b806117b484611b73565b6040516020016117c592919061340b565b6040516020818303038152906040525b915050919050565b6117e78383611c4b565b6117f460008484846115c7565b611833576040517f08c379a000000000000000000000000000000000000000000000000000000000815260040161182a906133af565b60405180910390fd5b505050565b60007f01ffc9a7000000000000000000000000000000000000000000000000000000007bffffffffffffffffffffffffffffffffffffffffffffffffffffffff1916827bffffffffffffffffffffffffffffffffffffffffffffffffffffffff1916149050919050565b6118ae84848484611e69565b60018111156118f2576040517f08c379a00000000000000000000000000000000000000000000000000000000081526004016118e990613616565b60405180910390fd5b6000829050600073ffffffffffffffffffffffffffffffffffffffff168573ffffffffffffffffffffffffffffffffffffffff16141561193a5761193581611f8f565b611979565b8373ffffffffffffffffffffffffffffffffffffffff168573ffffffffffffffffffffffffffffffffffffffff1614611978576119778582611fd8565b5b5b600073ffffffffffffffffffffffffffffffffffffffff168473ffffffffffffffffffffffffffffffffffffffff1614156119bc576119b781612145565b6119fb565b8473ffffffffffffffffffffffffffffffffffffffff168473ffffffffffffffffffffffffffffffffffffffff16146119fa576119f98482612216565b5b5b5050505050565b6000611a0d826107e1565b9050611a1d81600084600161155c565b611a26826107e1565b90506004600083815260200190815260200160002060006101000a81549073ffffffffffffffffffffffffffffffffffffffff02191690556001600360008373ffffffffffffffffffffffffffffffffffffffff1673ffffffffffffffffffffffffffffffffffffffff168152602001908152602001600020600082825403925050819055506002600083815260200190815260200160002060006101000a81549073ffffffffffffffffffffffffffffffffffffffff021916905581600073ffffffffffffffffffffffffffffffffffffffff168273ffffffffffffffffffffffffffffffffffffffff167fddf252ad1be2c89b69c2b068fc378daa952ba7f163c4a11628f55a4df523b3ef60405160405180910390a4611b4c81600084600161156e565b5050565b6000808273ffffffffffffffffffffffffffffffffffffffff163b119050919050565b606060006001611b8284612295565b01905060008167ffffffffffffffff811115611ba157611ba061282f565b5b6040519080825280601f01601f191660200182016040528015611bd35781602001600182028036833780820191505090505b509050600082602001820190505b600115611c40578080600190039150507f3031323334353637383961626364656600000000000000000000000000000000600a86061a8153600a8581611c2a57611c29613636565b5b0494506000851415611c3b57611c40565b611be1565b819350505050919050565b600073ffffffffffffffffffffffffffffffffffffffff168273ffffffffffffffffffffffffffffffffffffffff161415611cbb576040517f08c379a0000000000000000000000000000000000000000000000000000000008152600401611cb2906136b1565b60405180910390fd5b611cc48161151b565b15611d04576040517f08c379a0000000000000000000000000000000000000000000000000000000008152600401611cfb9061371d565b60405180910390fd5b611d1260008383600161155c565b611d1b8161151b565b15611d5b576040517f08c379a0000000000000000000000000000000000000000000000000000000008152600401611d529061371d565b60405180910390fd5b6001600360008473ffffffffffffffffffffffffffffffffffffffff1673ffffffffffffffffffffffffffffffffffffffff16815260200190815260200160002060008282540192505081905550816002600083815260200190815260200160002060006101000a81548173ffffffffffffffffffffffffffffffffffffffff021916908373ffffffffffffffffffffffffffffffffffffffff160217905550808273ffffffffffffffffffffffffffffffffffffffff16600073ffffffffffffffffffffffffffffffffffffffff167fddf252ad1be2c89b69c2b068fc378daa952ba7f163c4a11628f55a4df523b3ef60405160405180910390a4611e6560008383600161156e565b5050565b6001811115611f8957600073ffffffffffffffffffffffffffffffffffffffff168473ffffffffffffffffffffffffffffffffffffffff1614611efd5780600360008673ffffffffffffffffffffffffffffffffffffffff1673ffffffffffffffffffffffffffffffffffffffff1681526020019081526020016000206000828254611ef5919061373d565b925050819055505b600073ffffffffffffffffffffffffffffffffffffffff168373ffffffffffffffffffffffffffffffffffffffff1614611f885780600360008573ffffffffffffffffffffffffffffffffffffffff1673ffffffffffffffffffffffffffffffffffffffff1681526020019081526020016000206000828254611f809190613771565b925050819055505b5b50505050565b6008805490506009600083815260200190815260200160002081905550600881908060018154018082558091505060019003906000526020600020016000909190919091505550565b60006001611fe584610868565b611fef919061373d565b90506000600760008481526020019081526020016000205490508181146120d4576000600660008673ffffffffffffffffffffffffffffffffffffffff1673ffffffffffffffffffffffffffffffffffffffff168152602001908152602001600020600084815260200190815260200160002054905080600660008773ffffffffffffffffffffffffffffffffffffffff1673ffffffffffffffffffffffffffffffffffffffff168152602001908152602001600020600084815260200190815260200160002081905550816007600083815260200190815260200160002081905550505b6007600084815260200190815260200160002060009055600660008573ffffffffffffffffffffffffffffffffffffffff1673ffffffffffffffffffffffffffffffffffffffff16815260200190815260200160002060008381526020019081526020016000206000905550505050565b60006001600880549050612159919061373d565b905060006009600084815260200190815260200160002054905060006008838154811061218957612188613008565b5b9060005260206000200154905080600883815481106121ab576121aa613008565b5b9060005260206000200181905550816009600083815260200190815260200160002081905550600960008581526020019081526020016000206000905560088054806121fa576121f96137c7565b5b6001900381819060005260206000200160009055905550505050565b600061222183610868565b905081600660008573ffffffffffffffffffffffffffffffffffffffff1673ffffffffffffffffffffffffffffffffffffffff168152602001908152602001600020600083815260200190815260200160002081905550806007600084815260200190815260200160002081905550505050565b600080600090507a184f03e93ff9f4daa797ed6e38ed64bf6a1f01000000000000000083106122f3577a184f03e93ff9f4daa797ed6e38ed64bf6a1f01000000000000000083816122e9576122e8613636565b5b0492506040810190505b6d04ee2d6d415b85acef81000000008310612330576d04ee2d6d415b85acef8100000000838161232657612325613636565b5b0492506020810190505b662386f26fc10000831061235f57662386f26fc10000838161235557612354613636565b5b0492506010810190505b6305f5e1008310612388576305f5e100838161237e5761237d613636565b5b0492506008810190505b61271083106123ad5761271083816123a3576123a2613636565b5b0492506004810190505b606483106123d057606483816123c6576123c5613636565b5b0492506002810190505b600a83106123df576001810190505b80915050919050565b8280546123f490612cfc565b90600052602060002090601f016020900481019282612416576000855561245d565b82601f1061242f57805160ff191683800117855561245d565b8280016001018555821561245d579182015b8281111561245c578251825591602001919060010190612441565b5b50905061246a91906124ae565b5090565b50805461247a90612cfc565b6000825580601f1061248c57506124ab565b601f0160209004906000526020600020908101906124aa91906124ae565b5b50565b5b808211156124c75760008160009055506001016124af565b5090565b6000604051905090565b600080fd5b600080fd5b60007fffffffff0000000000000000000000000000000000000000000000000000000082169050919050565b612514816124df565b811461251f57600080fd5b50565b6000813590506125318161250b565b92915050565b60006020828403121561254d5761254c6124d5565b5b600061255b84828501612522565b91505092915050565b60008115159050919050565b61257981612564565b82525050565b60006020820190506125946000830184612570565b92915050565b600081519050919050565b600082825260208201905092915050565b60005b838110156125d45780820151818401526020810190506125b9565b838111156125e3576000848401525b50505050565b6000601f19601f8301169050919050565b60006126058261259a565b61260f81856125a5565b935061261f8185602086016125b6565b612628816125e9565b840191505092915050565b6000602082019050818103600083015261264d81846125fa565b905092915050565b6000819050919050565b61266881612655565b811461267357600080fd5b50565b6000813590506126858161265f565b92915050565b6000602082840312156126a1576126a06124d5565b5b60006126af84828501612676565b91505092915050565b600073ffffffffffffffffffffffffffffffffffffffff82169050919050565b60006126e3826126b8565b9050919050565b6126f3816126d8565b82525050565b600060208201905061270e60008301846126ea565b92915050565b61271d816126d8565b811461272857600080fd5b50565b60008135905061273a81612714565b92915050565b60008060408385031215612757576127566124d5565b5b60006127658582860161272b565b925050602061277685828601612676565b9150509250929050565b61278981612655565b82525050565b60006020820190506127a46000830184612780565b92915050565b6000806000606084860312156127c3576127c26124d5565b5b60006127d18682870161272b565b93505060206127e28682870161272b565b92505060406127f386828701612676565b9150509250925092565b600060208284031215612813576128126124d5565b5b60006128218482850161272b565b91505092915050565b600080fd5b7f4e487b7100000000000000000000000000000000000000000000000000000000600052604160045260246000fd5b612867826125e9565b810181811067ffffffffffffffff821117156128865761288561282f565b5b80604052505050565b60006128996124cb565b90506128a5828261285e565b919050565b600067ffffffffffffffff8211156128c5576128c461282f565b5b602082029050602081019050919050565b600080fd5b600080fd5b600067ffffffffffffffff8211156128fb576128fa61282f565b5b612904826125e9565b9050602081019050919050565b82818337600083830152505050565b600061293361292e846128e0565b61288f565b90508281526020810184848401111561294f5761294e6128db565b5b61295a848285612911565b509392505050565b600082601f8301126129775761297661282a565b5b8135612987848260208601612920565b91505092915050565b60006129a361299e846128aa565b61288f565b905080838252602082019050602084028301858111156129c6576129c56128d6565b5b835b81811015612a0d57803567ffffffffffffffff8111156129eb576129ea61282a565b5b8086016129f88982612962565b855260208501945050506020810190506129c8565b5050509392505050565b600082601f830112612a2c57612a2b61282a565b5b8135612a3c848260208601612990565b91505092915050565b60008060408385031215612a5c57612a5b6124d5565b5b6000612a6a8582860161272b565b925050602083013567ffffffffffffffff811115612a8b57612a8a6124da565b5b612a9785828601612a17565b9150509250929050565b612aaa81612564565b8114612ab557600080fd5b50565b600081359050612ac781612aa1565b92915050565b60008060408385031215612ae457612ae36124d5565b5b6000612af28582860161272b565b9250506020612b0385828601612ab8565b9150509250929050565b600067ffffffffffffffff821115612b2857612b2761282f565b5b612b31826125e9565b9050602081019050919050565b6000612b51612b4c84612b0d565b61288f565b905082815260208101848484011115612b6d57612b6c6128db565b5b612b78848285612911565b509392505050565b600082601f830112612b9557612b9461282a565b5b8135612ba5848260208601612b3e565b91505092915050565b60008060008060808587031215612bc857612bc76124d5565b5b6000612bd68782880161272b565b9450506020612be78782880161272b565b9350506040612bf887828801612676565b925050606085013567ffffffffffffffff811115612c1957612c186124da565b5b612c2587828801612b80565b91505092959194509250565b60008060408385031215612c4857612c476124d5565b5b6000612c568582860161272b565b925050602083013567ffffffffffffffff811115612c7757612c766124da565b5b612c8385828601612962565b9150509250929050565b60008060408385031215612ca457612ca36124d5565b5b6000612cb28582860161272b565b9250506020612cc38582860161272b565b9150509250929050565b7f4e487b7100000000000000000000000000000000000000000000000000000000600052602260045260246000fd5b60006002820490506001821680612d1457607f821691505b60208210811415612d2857612d27612ccd565b5b50919050565b7f4552433732313a20617070726f76616c20746f2063757272656e74206f776e6560008201527f7200000000000000000000000000000000000000000000000000000000000000602082015250565b6000612d8a6021836125a5565b9150612d9582612d2e565b604082019050919050565b60006020820190508181036000830152612db981612d7d565b9050919050565b7f4552433732313a20617070726f76652063616c6c6572206973206e6f7420746f60008201527f6b656e206f776e6572206f7220617070726f76656420666f7220616c6c000000602082015250565b6000612e1c603d836125a5565b9150612e2782612dc0565b604082019050919050565b60006020820190508181036000830152612e4b81612e0f565b9050919050565b7f4552433732313a2063616c6c6572206973206e6f7420746f6b656e206f776e6560008201527f72206f7220617070726f76656400000000000000000000000000000000000000602082015250565b6000612eae602d836125a5565b9150612eb982612e52565b604082019050919050565b60006020820190508181036000830152612edd81612ea1565b9050919050565b7f455243373231456e756d657261626c653a206f776e657220696e646578206f7560008201527f74206f6620626f756e6473000000000000000000000000000000000000000000602082015250565b6000612f40602b836125a5565b9150612f4b82612ee4565b604082019050919050565b60006020820190508181036000830152612f6f81612f33565b9050919050565b7f455243373231456e756d657261626c653a20676c6f62616c20696e646578206f60008201527f7574206f6620626f756e64730000000000000000000000000000000000000000602082015250565b6000612fd2602c836125a5565b9150612fdd82612f76565b604082019050919050565b6000602082019050818103600083015261300181612fc5565b9050919050565b7f4e487b7100000000000000000000000000000000000000000000000000000000600052603260045260246000fd5b7f4552433732313a20696e76616c696420746f6b656e2049440000000000000000600082015250565b600061306d6018836125a5565b915061307882613037565b602082019050919050565b6000602082019050818103600083015261309c81613060565b9050919050565b7f4552433732313a2061646472657373207a65726f206973206e6f74206120766160008201527f6c6964206f776e65720000000000000000000000000000000000000000000000602082015250565b60006130ff6029836125a5565b915061310a826130a3565b604082019050919050565b6000602082019050818103600083015261312e816130f2565b9050919050565b7f4e487b7100000000000000000000000000000000000000000000000000000000600052601160045260246000fd5b600061316f82612655565b91507fffffffffffffffffffffffffffffffffffffffffffffffffffffffffffffffff8214156131a2576131a1613135565b5b600182019050919050565b7f4552433732313a207472616e736665722066726f6d20696e636f72726563742060008201527f6f776e6572000000000000000000000000000000000000000000000000000000602082015250565b60006132096025836125a5565b9150613214826131ad565b604082019050919050565b60006020820190508181036000830152613238816131fc565b9050919050565b7f4552433732313a207472616e7366657220746f20746865207a65726f2061646460008201527f7265737300000000000000000000000000000000000000000000000000000000602082015250565b600061329b6024836125a5565b91506132a68261323f565b604082019050919050565b600060208201905081810360008301526132ca8161328e565b9050919050565b7f4552433732313a20617070726f766520746f2063616c6c657200000000000000600082015250565b60006133076019836125a5565b9150613312826132d1565b602082019050919050565b60006020820190508181036000830152613336816132fa565b9050919050565b7f4552433732313a207472616e7366657220746f206e6f6e20455243373231526560008201527f63656976657220696d706c656d656e7465720000000000000000000000000000602082015250565b60006133996032836125a5565b91506133a48261333d565b604082019050919050565b600060208201905081810360008301526133c88161338c565b9050919050565b600081905092915050565b60006133e58261259a565b6133ef81856133cf565b93506133ff8185602086016125b6565b80840191505092915050565b600061341782856133da565b915061342382846133da565b91508190509392505050565b7f45524337323155524953746f726167653a2055524920736574206f66206e6f6e60008201527f6578697374656e7420746f6b656e000000000000000000000000000000000000602082015250565b600061348b602e836125a5565b91506134968261342f565b604082019050919050565b600060208201905081810360008301526134ba8161347e565b9050919050565b600081519050919050565b600082825260208201905092915050565b60006134e8826134c1565b6134f281856134cc565b93506135028185602086016125b6565b61350b816125e9565b840191505092915050565b600060808201905061352b60008301876126ea565b61353860208301866126ea565b6135456040830185612780565b818103606083015261355781846134dd565b905095945050505050565b6000815190506135718161250b565b92915050565b60006020828403121561358d5761358c6124d5565b5b600061359b84828501613562565b91505092915050565b7f455243373231456e756d657261626c653a20636f6e736563757469766520747260008201527f616e7366657273206e6f7420737570706f727465640000000000000000000000602082015250565b60006136006035836125a5565b915061360b826135a4565b604082019050919050565b6000602082019050818103600083015261362f816135f3565b9050919050565b7f4e487b7100000000000000000000000000000000000000000000000000000000600052601260045260246000fd5b7f4552433732313a206d696e7420746f20746865207a65726f2061646472657373600082015250565b600061369b6020836125a5565b91506136a682613665565b602082019050919050565b600060208201905081810360008301526136ca8161368e565b9050919050565b7f4552433732313a20746f6b656e20616c7265616479206d696e74656400000000600082015250565b6000613707601c836125a5565b9150613712826136d1565b602082019050919050565b60006020820190508181036000830152613736816136fa565b9050919050565b600061374882612655565b915061375383612655565b92508282101561376657613765613135565b5b828203905092915050565b600061377c82612655565b915061378783612655565b9250827fffffffffffffffffffffffffffffffffffffffffffffffffffffffffffffffff038211156137bc576137bb613135565b5b828201905092915050565b7f4e487b7100000000000000000000000000000000000000000000000000000000600052603160045260246000fdfea2646970667358221220f44c762fc39da9f8c0949236fc6421ff15bd80e68d3e10a1487f70c0871e9a5364736f6c63430008090033",
  "immutableReferences": {},
  "source": "// SPDX-License-Identifier: MIT\r\npragma solidity ^0.8.9;\r\n\r\nimport \"@openzeppelin/contracts/token/ERC721/ERC721.sol\";\r\nimport \"@openzeppelin/contracts/token/ERC721/extensions/ERC721Enumerable.sol\";\r\nimport \"@openzeppelin/contracts/token/ERC721/extensions/ERC721URIStorage.sol\";\r\nimport \"@openzeppelin/contracts/token/ERC721/extensions/ERC721Burnable.sol\";\r\nimport \"@openzeppelin/contracts/utils/Counters.sol\";\r\n\r\ncontract MaticStone is ERC721, ERC721Enumerable, ERC721URIStorage, ERC721Burnable {\r\n    using Counters for Counters.Counter;\r\n\r\n    Counters.Counter private _tokenIdCounter;\r\n\r\n    constructor() ERC721(\"MaticStone\", \"MTS\") {}\r\n\r\n    function safeMint(address to, string memory uri) public {\r\n        uint256 tokenId = _tokenIdCounter.current();\r\n        _tokenIdCounter.increment();\r\n        _safeMint(to, tokenId);\r\n        _setTokenURI(tokenId, uri);\r\n    }\r\n\r\n    function mulitMint(address to, string[] memory uris) public {\r\n        uint i=0;\r\n        for(i; i < uris.length; i++) {\r\n            safeMint(to, uris[i]);\r\n        }\r\n    }\r\n\r\n    // The following functions are overrides required by Solidity.\r\n\r\n    function _beforeTokenTransfer(address from, address to, uint256 tokenId, uint256 batchSize)\r\n        internal\r\n        override(ERC721, ERC721Enumerable)\r\n    {\r\n        super._beforeTokenTransfer(from, to, tokenId, batchSize);\r\n    }\r\n\r\n    function _burn(uint256 tokenId) internal override(ERC721, ERC721URIStorage) {\r\n        super._burn(tokenId);\r\n    }\r\n\r\n    function tokenURI(uint256 tokenId)\r\n        public\r\n        view\r\n        override(ERC721, ERC721URIStorage)\r\n        returns (string memory)\r\n    {\r\n        return super.tokenURI(tokenId);\r\n    }\r\n\r\n    function supportsInterface(bytes4 interfaceId)\r\n        public\r\n        view\r\n        override(ERC721, ERC721Enumerable)\r\n        returns (bool)\r\n    {\r\n        return super.supportsInterface(interfaceId);\r\n    }\r\n}",
  "sourcePath": "C:\\Users\\diggy\\Documents\\Code\\Matic-Stone\\contracts\\MaticStone.sol",
  "compiler": {
    "name": "solc",
    "version": "0.8.9+commit.e5eed63a.Emscripten.clang"
  },
  "schemaVersion": "3.4.8",
  "updatedAt": "2022-11-12T15:18:06.568Z",
  "devdoc": {
    "kind": "dev",
    "methods": {
      "approve(address,uint256)": {
        "details": "See {IERC721-approve}."
      },
      "balanceOf(address)": {
        "details": "See {IERC721-balanceOf}."
      },
      "burn(uint256)": {
        "details": "Burns `tokenId`. See {ERC721-_burn}. Requirements: - The caller must own `tokenId` or be an approved operator."
      },
      "getApproved(uint256)": {
        "details": "See {IERC721-getApproved}."
      },
      "isApprovedForAll(address,address)": {
        "details": "See {IERC721-isApprovedForAll}."
      },
      "name()": {
        "details": "See {IERC721Metadata-name}."
      },
      "ownerOf(uint256)": {
        "details": "See {IERC721-ownerOf}."
      },
      "safeTransferFrom(address,address,uint256)": {
        "details": "See {IERC721-safeTransferFrom}."
      },
      "safeTransferFrom(address,address,uint256,bytes)": {
        "details": "See {IERC721-safeTransferFrom}."
      },
      "setApprovalForAll(address,bool)": {
        "details": "See {IERC721-setApprovalForAll}."
      },
      "symbol()": {
        "details": "See {IERC721Metadata-symbol}."
      },
      "tokenByIndex(uint256)": {
        "details": "See {IERC721Enumerable-tokenByIndex}."
      },
      "tokenOfOwnerByIndex(address,uint256)": {
        "details": "See {IERC721Enumerable-tokenOfOwnerByIndex}."
      },
      "totalSupply()": {
        "details": "See {IERC721Enumerable-totalSupply}."
      },
      "transferFrom(address,address,uint256)": {
        "details": "See {IERC721-transferFrom}."
      }
    },
    "version": 1
  },
  "userdoc": {
    "kind": "user",
    "methods": {},
    "version": 1
  }
}